:020000040800F2
:10000000B8090020CD010008351700087116000856
:10001000CD16000801040008D52A000800000000E1
:10002000000000000000000000000000011F0008A8
:10003000A905000800000000791800084D200008FC
:10004000E7010008E7010008E7010008E7010008F0
:10005000E7010008E7010008E7010008E7010008E0
:10006000E7010008990F0008CD0F0008E70100081C
:10007000E7010008E7010008E7010008E7010008C0
:10008000E7010008E7010008E7010008E7010008B0
:10009000E7010008E7010008E7010008E7010008A0
:1000A000E7010008E7010008E7010008E701000890
:1000B000AD23000825240008E7010008E701000837
:1000C000E7010008E7010008E7010008E701000870
:1000D000E7010008F9280008E7010008E701000827
:1000E000E7010008E7010008E7010008E701000850
:1000F000E7010008E7010008E7010008E701000840
:10010000E7010008E7010008A1240008E701000852
:10011000E7010008E7010008E7010008E70100081F
:10012000E7010008E7010008E7010008E70100080F
:1001300000F002F800F03AF80AA090E8000C8244BF
:100140008344AAF10107DA4501D100F02FF8AFF29C
:10015000090EBAE80F0013F0010F18BFFB1A43F0A5
:1001600001031847F43C0000143D0000103A24BF7E
:1001700078C878C1FAD8520724BF30C830C144BF0C
:1001800004680C607047000000230024002500264E
:10019000103A28BF78C1FBD8520728BF30C148BFEA
:1001A0000B6070471FB51FBD10B510BD00F038F8CB
:1001B0001146FFF7F7FF03F003F800F056F803B419
:1001C000FFF7F2FF03BC02F041FE00000948804740
:1001D00009480047FEE7FEE7FEE7FEE7FEE7FEE729
:1001E000FEE7FEE7FEE7FEE704480549054A064B41
:1001F000704700000D21000831010008B8030020FD
:10020000B8090020B8050020B805002070477047E5
:100210007047704770470000004870475403002043
:100220007546FFF7F9FFAE4605006946534620F0D4
:100230000700854618B020B5FFF7D6FFBDE820407F
:100240004FF000064FF000074FF000084FF0000B92
:1002500021F00701AC46ACE8C009ACE8C009ACE845
:10026000C009ACE8C0098D4670470446AFF3008072
:100270002046FFF7A4FF21B1826842F001028260AC
:1002800003E0826822F001028260704710B50446E4
:100290001248844208D10121401501F0B7FD002128
:1002A000601501F0B3FD17E00D48844208D101212B
:1002B000001501F0ABFD0021201501F0A7FD0BE0BA
:1002C0000848844208D10121C80301F09FFD0021A4
:1002D0004FF4004001F09AFD10BD000000240140E1
:1002E00000280140003C0140014600208A6802F0DD
:1002F00004020AB1012000E00020704701460020FE
:100300008A6802F008020AB1012000E0002070476C
:1003100030B502460020002350680F4C20400D7974
:100320000C6844EA05242043506090680B4C204040
:10033000D1E902542C434D7944EA450420439060AE
:10034000D06A20F470000C7C641EE4B2234340EABF
:100350000350D06230BD0000FFFEF0FFFDF7F1FF5B
:10036000816841F0080181607047816841F00401B3
:100370008160704700B587B001214FF4047001F02F
:1003800035FD4FF4004001F005FD0720ADF80400F5
:1003900000208DF8070001A9174800F031FF174829
:1003A000FFF774FF002002908DF80C008DF80D000F
:1003B0004FF4602004900020059001208DF8180073
:1003C00002A90E48FFF7A4FF01210C48FFF753FFD5
:1003D0000A48FFF7C5FF00BF0848FFF78FFF002856
:1003E000FAD10648FFF7C1FF00BF0448FFF77CFFC2
:1003F0000028FAD107B000BD0010014000240140E0
:1004000000BFFEE721B1026842F00102026004E091
:1004100002684FF6FE731A400260704701684FF69B
:10042000FE72114001600021016041608160C16085
:100430004B49884208D14A490839496841F00F01BF
:10044000474A083A51608AE045491431884208D148
:1004500043490839496841F0F001414A083A51607E
:100460007DE03F492831884208D13D490839496833
:1004700041F470613A4A083A516070E038493C31C1
:10048000884208D136490839496841F47041344AF4
:10049000083A516063E032495031884208D130490E
:1004A0000839496841F470212D4A083A516056E0F4
:1004B0002B496431884208D129490839496841F4F7
:1004C0007001274A083A516049E02549783188424D
:1004D00008D123490839496841F07061204A083A37
:1004E00051603CE01F49884206D1011F096841F074
:1004F0000F01021F116032E01A491431884208D1FD
:100500001849091F096841F0F001164A121F1160CD
:1005100025E014492831884208D11249091F096889
:1005200041F470610F4A121F116018E00D493C310F
:10053000884208D10B49091F096841F47041094AF2
:10054000121F11600BE007495031884207D105495D
:10055000091F096841F47021024A121F1160704797
:10056000080002400804024010B50022026847F665
:10057000F0739A430C6A8B6823430C6923434C69DC
:1005800023438C692343CC6923434C6A23438C6AFD
:1005900023431A430260CB6843600B6883604B6857
:1005A000C36010BD41607047704710B54FF4A06044
:1005B00001F0FAF84FF4E13002F08EFA01F05AF847
:1005C000FFF7D8FE00F01CFD01F0FCF802F01CFB68
:1005D00000F0D6FD01F052FD10BD70477047704726
:1005E00010B507480078022802D101F08DFA05E025
:1005F00003480078012801D101F040F910BD000046
:10060000F900002010B5FB48007801282ED1022007
:10061000F949087000F0D6FEF848B0F90400122835
:1006200023DCF7480078B0B1002001F051F8002039
:1006300001F066F800F0BAFD02F02EFE4FF4E16022
:1006400002F006FC02F03AFE00F090FDED48007862
:10065000401EEC49087002F00CFE0020E6490870CC
:10066000E4480078401CE349087015E2E14800784E
:1006700002281FD1E0490870E348007830B100201B
:10068000E2490860E2490860DF490870E048006814
:10069000722803D2DD4800687228E6D302F0E9FD33
:1006A0000020D54908700320D24908700120D6499E
:1006B0000870DAE7CF480078032815D10020CE492A
:1006C0000870502001F004F8502001F019F800F0F3
:1006D0005DFFCA48B0F902001928C6DCC548007899
:1006E000401CC4490870C0E7C2480078042814D1EF
:1006F0000220C149087000F065FEC048B0F904004E
:100700001228B2DC02F0B5FD0020BB490870B948E0
:100710000078401CB7490870A7E7B648007805285C
:1007200038D10220B449087000F04CFEB348B0F94B
:100730000400122899DCB2484078B0B1002000F0E3
:10074000C7FF002000F0DCFF00F030FD02F0A4FD48
:100750004FF4E16002F07CFB02F0B0FD00F006FD1A
:10076000A8480078401EA749087002F082FDA548FD
:10077000007840B10020A04908709E480078401CD5
:100780009C490870FBE300209B490870642099494C
:100790000870F4E397480078062825D1022096498E
:1007A00008709948007850B100F00CFE00F00AFE85
:1007B00000F008FE00F006FE00209349087000F0EB
:1007C00001FE8E48B0F9040012288CDC02F051FDC5
:1007D00088480078401C87490870002086490870C6
:1007E000012089490870CAE382480078072820D18F
:1007F0000220814908708448007830B10020834984
:1008000008608349086080490870814800680F28A3
:1008100003D27E4800680F28B4D3002076490870C0
:1008200074480078401C73490870012076490870AC
:10083000A5E370480078082824D100206E4908708C
:100840007148007830B10020704908607049086034
:100850006D490870462000F03BFF502000F050FF2B
:1008600000F0B0FD6548B0F9040012288ADC02F0FF
:1008700035FD0120644908705E480078401C5D49E0
:1008800008707CE35B480078092827D100205A498A
:1008900008705D48007830B100205C4908605C4910
:1008A0000860594908704A2000F012FF502000F0FB
:1008B00027FF00F087FD5148B0F90400122892DCB0
:1008C00002F0D7FC4B480078401C4A4908700120D0
:1008D0004D49087000204849087050E345480078A9
:1008E0000A2821D10220444908704748007830B1D5
:1008F000002046490860464908604349087000F0F6
:1009000061FD3E48B0F90400122891DC02F0B1FC10
:1009100038480078401C3749087001203A4908706F
:100920000020354908702AE3324800780B281FD18F
:100930000220314908703448007830B10020334932
:100940000860334908603049087000F0ADFD2B485D
:10095000B0F90000142894DC26480078401C254992
:10096000087001202849087000202349087006E318
:10097000204800780C2822D101201F490870224805
:10098000007830B1002021490860214908601E49E3
:1009900008701F480068502803D21C48006850287F
:1009A0009BD302F09BFC13480078401C114908704F
:1009B000002011490870012013490870DFE20D483A
:1009C00000780D2826D100200B490870502000F037
:1009D0007FFE502000F094FE00F066FD0748B0F95D
:1009E000000023289FDC03480078401C0149087060
:1009F000C5E200004D000020F90000207A00002030
:100A0000480000204C0000204E0000203C00002048
:100A100038000020FE4800780E284CD10120FD4906
:100A20000870FD48007830B10020FC490860FC499E
:100A30000860F949087000F0C5FCFA48B0F90400F4
:100A4000122894DCF8488078B0B1002000F040FE15
:100A5000002000F055FE00F0A9FB02F0E5FB40F697
:100A6000340002F0F5F902F0F4FB00F07FFBEF48F0
:100A70000078401EED490870EC48007868B102F03B
:100A80002DFCE3480078401CE14908700120E24950
:100A900008700020DF49087071E202F01FFC02F0CC
:100AA0001DFC1520DA4908700120DB490870002080
:100AB000D849087063E2D64800780F2825D1012074
:100AC000D4490870D448007850B100F07BFC00F0A5
:100AD00079FC00F077FC00F075FC0020CE4908702E
:100AE00000F070FCCF48B0F904001228D4DC02F00A
:100AF000F5FBC7480078401CC54908700120C6496D
:100B000008700020C349087039E2C14800781028F5
:100B100029D10120BF49087000F054FCC148B0F948
:100B200004001228B8DCC048C07888B1002000F06A
:100B3000CFFD002000F0E4FD00F038FB02F074FB74
:100B40004FF4E16002F084F902F083FB00F00EFB49
:100B500002F0C4FBAE480078401CAD49087000208C
:100B6000AC4908700BE2AA480078112825D1012071
:100B7000A8490870A848007850B100F023FC00F0A4
:100B800021FC00F01FFC00F01DFC0020A2490870B1
:100B900000F018FCA348B0F9040012288ADC02F027
:100BA0009DFB9B480078401C9949087001209A4998
:100BB0000870002097490870E1E1954800781228F4
:100BC00020D10120934908709348007830B100206B
:100BD00092490860924908608F49087090480068FF
:100BE0000D2803D28D4800680D288DD30020894937
:100BF000087001208849087085480078401C8449A5
:100C00000870BCE182480078132824D10020814973
:100C100008708148007830B1002080490860804920
:100C200008607D4908705A2000F052FD5A2000F0FB
:100C300067FD00F0C7FB7B48B0F90400122891DC87
:100C400002F017FB01207449087071480078401CBD
:100C50006F49087093E16E480078142814D102207F
:100C60006C49087000F0AEFB6E48B0F90400122821
:100C7000A2DC02F0FEFA66480078401C6449087065
:100C80000020644908707AE161480078152820D175
:100C90000220604908706048007830B100205F4948
:100CA00008605F4908605C4908705D480068462834
:100CB00003D25A4800684628A3D30020554908703B
:100CC00053480078401C524908700120524908706E
:100CD00055E14F48007816281AD100204D49087078
:100CE0004A2000F0F5FC502000F00AFD00F06AFBFD
:100CF0004C48B0F904001228ACDC02F0BAFA4448BF
:100D00000078401C4249087000204249087036E1D2
:100D10003F48007817281FD102203E49087000F094
:100D200035FC3D48007830B100203C4908603C4922
:100D30000860394908703B48B0F90200192889DB7E
:100D400000203449087032480078401C304908704F
:100D500001203149087012E12D480078182817D178
:100D600000202C490870502000F0B2FC502000F008
:100D7000C7FC00F027FB2B48B0F904001228A7DCC1
:100D800002F0ACFA22480078401C21490870F6E0D5
:100D90001F480078192814D101201E49087000F05E
:100DA00011FB2048B0F90400122891DC02F096FAF9
:100DB00017480078401C1649087000201549087033
:100DC000DDE0134800781A2838D101201149087055
:100DD0001148007830B100201049086010490860BF
:100DE0000D4908700E4800688A2803D20B48006835
:100DF0008A2822D30020074908700120064908707C
:100E000003480078401C02490870002010E00000F0
:100E10004D000020F90000204E0000203C00002082
:100E2000380000207A000020480000204C000020FC
:100E300000F04EFC002000F063FCA0E05048007879
:100E4000642825D102204F4908704F48007850B1DE
:100E500000F0B8FA00F0B6FA00F0B4FA00F0B2FA16
:100E600000204949087000F0ADFA4848B0F9040084
:100E700012280CDC02F0FDF941480078401C404982
:100E8000087000203F49087001203F49087076E053
:100E90003B480078652820D102203A4908703A483A
:100EA000007830B100203A4908603A490860364974
:100EB0000870384800680F2803D2354800680F28AA
:100EC0005DD300202F4908702D480078401C2C4924
:100ED000087001202C49087051E0294800786628E4
:100EE00024D10020274908702748007830B100201D
:100EF0002749086027490860234908703B2000F013
:100F0000E7FB502000F0FCFB00F05CFA1F48B0F952
:100F10000400122833DC02F0E1F901201A490870BC
:100F200017480078401C1649087028E014480078DB
:100F3000672824D10020134908701348007830B185
:100F4000002013490860134908600F4908706420A5
:100F500000F0BEFB582000F0D3FB00F033FA0B4842
:100F6000B0F9040012280ADC02F0B8F9192004498B
:100F7000087001200449087000200249087010BD63
:100F80004D000020F90000204E0000207A000020D3
:100F90003C0000203800002010B5082000F088F840
:100FA00078B108480068401C064908600846006897
:100FB0001E21B0FBF1F000B203494881082000F087
:100FC00071F810BD380000204203002010B5102039
:100FD00000F06EF878B108480068401C06490860C7
:100FE000084600681E21B0FBF1F000B203490881F9
:100FF000102000F057F810BD3C00002042030020F4
:101000001FB50121084600F0F1FE0121102000F07B
:10101000EDFE48208DF803001820ADF800000320F5
:101020008DF8020069461E4800F0EAF8032102200C
:1010300000F0C6F80820029000208DF80C000C206B
:101040008DF80D0001208DF80E0002A800F044F884
:101050000421022000F0B4F81020029002A800F051
:101060003BF809208DF8040001208DF805000320CD
:101070008DF8060001208DF8070001A800F05CFB48
:101080000A208DF8040001208DF8050003208DF85A
:10109000060001208DF8070001A800F04DFB1FBDE0
:1010A000001001400149086070470000140401402D
:1010B000014600200022074B1B6803EA0102054B92
:1010C00014331B680B4013B10AB1012000E000206B
:1010D0007047000000040140002123498279002A62
:1010E0003AD00A46126803689A430B461A600A1DF2
:1010F000126803689A430B1D1A60027911440A684A
:1011000003681A430A60184A0832126803689A434F
:10111000154B08331A601A1D126803689A43124B64
:101120000C331A604279102A0ED11A1F1268036814
:101130001A430D4B08331A601A1D126803681A43CC
:10114000094B0C331A600DE00749427911440A68D3
:1011500003681A430A6005E0027911440A680368CB
:101160009A430A60704700000004014010B54FF434
:101170000041024800F021F910BD000000140140B8
:1011800008B50121202000F031FE10208DF8030069
:10119000C002ADF8000003208DF802006946024845
:1011A00000F02EF808BD00000014014010B54FF407
:1011B0000041024800F003F910BD00000014014096
:1011C00030B500228B071C0F0F2303FA04F20B4BE0
:1011D0008C1053F824309343084C8D1044F825307C
:1011E00023468C1053F824308C07240F00FA04F4A3
:1011F0002343024C8D1044F8253030BD08000140D7
:101200002DE9F0410246002500260020002300249D
:10121000002791F803C00CF00F0591F803C00CF003
:10122000100CBCF1000F03D091F802C04CEA050588
:1012300091F800C0BCF1000F31D0146800202BE001
:101240004FF0010C0CFA00F3B1F800C00CEA0306F1
:101250009E4220D183004FF00F0C0CFA03F7BC43E1
:1012600005FA03FC4CEA040491F803C0BCF1280F12
:1012700006D14FF0010C0CFA00FCC2F814C00AE0D1
:1012800091F803C0BCF1480F05D14FF0010C0CFAE6
:1012900000FCC2F810C0401C0828D1D31460B1F87B
:1012A00000C0BCF1FF0F34DD546800202EE000F1D7
:1012B000080C4FF0010808FA0CF3B1F800C00CEA72
:1012C00003069E4221D183004FF00F0C0CFA03F766
:1012D000BC4305FA03FC4CEA040491F803C0BCF1DA
:1012E000280F05D100F1080C08FA0CF8C2F8148098
:1012F00091F803C0BCF1480F07D100F1080C4FF082
:10130000010808FA0CF8C2F81080401C0828CED357
:101310005460BDE8F0810000F0B50A4600230024C7
:101320000021002500F00046B6F1004F02D11D4E0D
:10133000F16901E01B4E7168C0F3034583B200F40C
:101340004016B6F5401F08D121F07061154E766841
:1013500026F07066134F7E6012E000F48016B6F53A
:10136000801F06D1032606FA05F4A14341F07061FF
:1013700006E0460D360103FA06F6B14341F070610E
:1013800022B1460D360103FA06F6314300F000465D
:10139000B6F1004F02D1034EF16101E0014E7160E0
:1013A000F0BD00000000014002460020D3680B4061
:1013B0000BB1012000E000207047416170470161DE
:1013C000704700002DE9F8430020009000243049C8
:1013D00008700121880701F0B0F84FF400612D4832
:1013E000FFF7EDFF142001F03DFD4FF400612948A7
:1013F000FFF7E3FF00BF2648007800F0800030B917
:101400004FF0E020806941F294118842F3D82048DF
:10141000007800F0800030B300F046F91E480488E0
:10142000AA2060434FF47A7190FBF1F9484602F02C
:1014300040F807460022194B01F064FF054602F010
:1014400009F880B20090684601F06AFDBDF800001E
:101450000A2190FBF1F080B20090BDF8000000B2CC
:101460000F49888006E0C8200D4988800021C00609
:1014700001F098F900214FF0804001F05EF8002063
:10148000034908700648808806490880BDE8F8834B
:1014900028000020001001402A0000200000E03F4A
:1014A0007A000020420300202DE9F843002000903C
:1014B00000242F49087001212E4801F03EF84FF416
:1014C00000512D48FFF77BFF142001F0CBFC4FF4B7
:1014D00000512948FFF771FF00BF2548007800F050
:1014E000800030B94FF0E020806941F294118842C9
:1014F000F3D81F48007800F0800020B31F4804880C
:10150000AA2060434FF47A7190FBF1F9484601F04C
:10151000D0FF074600221A4B01F0F4FE054601F009
:1015200099FF80B20090684601F06AFDBDF80000A6
:101530000A2190FBF1F080B20090BDF8000000B2EB
:101540001049088006E000210A4801F045F9C8204A
:101550000C4908800021074800F0EFFF00200449F3
:1015600008700848008808498880BDE8F8830000B2
:1015700030000020000C004000100140320000202C
:101580000000E03F7A000020420300202DE9F843EC
:101590000020009000242F49087001212E4800F0FF
:1015A000CCFF4FF480512D48FFF709FF142001F0C4
:1015B00059FC4FF480512948FFF7FFFE00BF254832
:1015C000007800F0800030B94FF0E020806941F2EF
:1015D00094118842F3D81F48007800F0800020B3AF
:1015E0001F480488AA2060434FF47A7190FBF1F9F8
:1015F000484601F05EFF074600221A4B01F082FECA
:10160000054601F027FF80B20090684601F068FDB2
:10161000BDF800000A2190FBF1F080B20090BDF807
:10162000000000B21049488006E0C8200E494880FA
:101630000021094801F0D0F80021074800F07DFFA3
:101640000020044908700848408808494880BDE8DF
:10165000F88300002C00002000040040001001402E
:101660002E0000200000E03F7A000020420300200E
:1016700000BFFEE708B50121202000F0B7FB802065
:10168000ADF8000010208DF8030001208DF8020055
:1016900069460448FFF7B4FD80210248FFF78DFE3C
:1016A00008BD00000014014010B580210648FFF776
:1016B0007BFE20B980210448FFF781FE03E08021F2
:1016C0000148FFF77AFE10BD0014014000BFFEE79D
:1016D00010B50446642C00DD642414F1640F01DAB3
:1016E0006FF063040448448004F2EE2004B2A1B217
:1016F000024801F080F810BD3203002000080040CD
:1017000010B50446642C00DD642414F1640F01DA82
:101710006FF063040548048040F2EE20001B04B221
:10172000A1B2034801F065F810BD000032030020AB
:10173000000800407047000070B5002100230F2210
:10174000C47804B3154C246804F4E064C4F5E06480
:10175000210AC1F10403CA40447804FA03F18478F1
:101760001440214309010E4C0678A155047804F079
:101770001F050124AC4005786D11AD0005F1E02591
:10178000C5F8004109E0047804F01F050124AC40CD
:10179000044D0678761145F8264070BD0CED00E04A
:1017A00000E400E080E100E002490143024A1160E8
:1017B000704700000000FA050CED00E062B67047CB
:1017C00072B6704700B589B00121212000F00EFBF0
:1017D00001210803FFF7A0FD0121042000F0F6FA23
:1017E0004FF44050ADF8200018208DF82300012060
:1017F0008DF8220008A91E48FFF702FD42F20F7083
:10180000ADF818008F20ADF814000020ADF81A00D4
:10181000ADF8160005A9174801F01CF86020ADF8D6
:1018200004000120ADF806000020ADF80A00ADF874
:101830000C0001A90F4800F00DFF08210D4800F031
:1018400055FF01A90B4800F05BFF0821094800F093
:10185000B6FF0121074800F061FE0121054800F0B4
:1018600078FE0121034800F068FE09B000BD0000C9
:101870000014014000080040704700002DE9F047C7
:10188000002400250026FFF70FFE9849B1F900005B
:1018900002F004F9074696484168384602F05BFAC0
:1018A000044693480168204602F060FA05469048D5
:1018B00004604FF08041204602F01CFA14D28D499A
:1018C00091F9060002F0EAF88146294602F046F94D
:1018D0000746894991F9060002F0E0F8804639464A
:1018E00001F03CFF06469EE04FF08041204602F0AA
:1018F00065F814D17F4991F9050002F0CFF88146CF
:10190000294602F02BF907467B4991F9050002F0C0
:10191000C5F88046394601F021FF064683E04FF0C6
:101920007E51204602F04AF814D1724991F9040020
:1019300002F0B4F88146294602F010F907466E49D4
:1019400091F9040002F0AAF88046394601F006FF3A
:10195000064668E00021204602F030F814D16549BF
:1019600091F9030002F09AF88146294602F0F6F850
:101970000746614991F9030002F090F88046394624
:1019800001F0ECFE06464EE05C49204602F016F8F7
:1019900014D1584991F9020002F080F88146294695
:1019A00002F0DCF80746544991F9020002F076F89B
:1019B0008046394601F0D2FE064634E04FF0404101
:1019C000204601F0FBFF14D14A4991F9010002F0D1
:1019D00065F88146294602F0C1F80746464991F963
:1019E000010002F05BF88046394601F0B7FE06467A
:1019F00019E04FF04041204602F07CF813D23D49F7
:101A000091F9000002F04AF88146294602F0A6F852
:101A10000746394991F9000002F040F880463946FE
:101A200001F09CFE064636480169304602F062F934
:101A300002D2334806690CE03148006980F0004763
:101A40003146384602F056F903D22D48006980F03D
:101A500000460021204602F04DF90ED26420FFF727
:101A600037FE3146274802F081F9804601F0DAFF5F
:101A700007B23846FFF744FE35E00021204602F069
:101A800039F80ED231461F4801F068FE804601F059
:101A9000C9FF07B23846FFF71BFE6420FFF730FE90
:101AA00021E00021284602F025F90ED26420FFF73C
:101AB0000FFE3146134802F059F9804601F0B2FF9B
:101AC00007B23846FFF71CFE0DE031460D4801F025
:101AD00045FE804601F0A6FF07B23846FFF7F8FD45
:101AE0006420FFF70DFEBDE8F08700007A000020BB
:101AF00064000020730000206C000020000080BF04
:101B0000500000200000C8422DE9F04700240025C5
:101B10000026FFF73BFD9849B1F9020001F0BEFF36
:101B2000074696484168384602F015F9044693483E
:101B30000168204602F01AF90546904804604FF00B
:101B40008041204602F0D6F814D28D4991F9060062
:101B500001F0A4FF8146294602F000F807468949B2
:101B600091F9060001F09AFF8046394601F0F6FD32
:101B700006469EE04FF08041204601F01FFF14D141
:101B80007F4991F9050001F089FF8146294601F05E
:101B9000E5FF07467B4991F9050001F07FFF80468C
:101BA000394601F0DBFD064683E04FF07E512046CA
:101BB00001F004FF14D1724991F9040001F06EFFA5
:101BC0008146294601F0CAFF07466E4991F9040093
:101BD00001F064FF8046394601F0C0FD064668E02A
:101BE0000021204601F0EAFE14D1654991F9030075
:101BF00001F054FF8146294601F0B0FF07466149D4
:101C000091F9030001F04AFF8046394601F0A6FD34
:101C100006464EE05C49204601F0D0FE14D15849FA
:101C200091F9020001F03AFF8146294601F096FF42
:101C30000746544991F9020001F030FF80463946C9
:101C400001F08CFD064634E04FF04041204601F0A3
:101C5000B5FE14D14A4991F9010001F01FFF8146F8
:101C6000294601F07BFF0746464991F9010001F042
:101C700015FF8046394601F071FD064619E04FF028
:101C80004041204601F036FF13D23D4991F9000052
:101C900001F004FF8146294601F060FF07463949FB
:101CA00091F9000001F0FAFE8046394601F056FD38
:101CB000064636480169304602F01CF802D2334825
:101CC00006690CE03148006980F00047314638462B
:101CD00002F010F803D22D48006980F00046002180
:101CE000204602F007F80ED23146294802F03EF8AD
:101CF000804601F097FE07B23846FFF7E9FC642002
:101D0000FFF7FEFC35E00021204601F0F3FE0ED285
:101D10006420FFF7DDFC31461D4801F01FFD8046C1
:101D200001F080FE07B23846FFF7EAFC21E000210F
:101D3000284601F0DFFF0ED23146154802F016F8B2
:101D4000804601F06FFE07B23846FFF7C1FC642001
:101D5000FFF7D6FC0DE06420FFF7BAFC31460C48D3
:101D600001F0FCFC804601F05DFE07B23846FFF74B
:101D7000C7FCBDE8F08700007A0000206400002066
:101D8000730000206C000020000080BF5000002085
:101D90000000C84201460020034A506820F4404039
:101DA00008435060704700000010024029B1064A05
:101DB00052690243044B5A6104E0034A5269824368
:101DC000014B5A61704700000010024029B1064AD9
:101DD000D2690243044BDA6104E0034AD2698243C8
:101DE000014BDA61704700000010024029B1064A39
:101DF00092690243044B9A6104E0034A9269824368
:101E0000014B9A61704700000010024029B1064A58
:101E1000D2680243044BDA6004E0034AD26882438A
:101E2000014BDA60704700000010024030B500211D
:101E30000022002400232D4D6D6805F00C0121B116
:101E4000042905D0082923D105E0294D056022E0A9
:101E5000274D05601FE0254D6D6805F47012234D78
:101E60006D6805F48034022505EB92421CB9214DC2
:101E7000554305600BE01D4D6D6805F400351DB13F
:101E80001C4D5543056002E0194D5543056002E0C5
:101E9000174D056000BF00BF144D6D6805F0F001DF
:101EA0000909154D6B5C0568DD4045600F4D6D6897
:101EB00005F4E061090A104D6B5C4568DD40856002
:101EC0000A4D6D6805F46051C90A0B4D6B5C45689D
:101ED000DD40C560054D6D6805F44041890B074D37
:101EE0006B5CC568B5FBF3F5056130BD00100240C1
:101EF00000127A0000093D00140000202400002098
:101F00007047000010B50B4800880A2190FBF1F2E1
:101F100001FB120008B9FFF755FA06480088C828E7
:101F200002D103200449087002480088401C01497E
:101F3000088010BDF60000204000002010B500F021
:101F400001F810BD0CB500200190009033480068E6
:101F500040F480303149086000BF3048006800F428
:101F6000003000900198401C0190009818B9019829
:101F7000B0F5A06FF1D12948006800F4003010B12D
:101F80000120009001E0002000900098012843D13A
:101F90002348006840F010002149086008460068A6
:101FA00020F0030008600846006840F00200086066
:101FB0001A48406819494860084640684860084621
:101FC000406840F4806048600846406820F47C1017
:101FD00048600846406840F4E810486008460068D9
:101FE00040F08070086000BF0C48006800F000708E
:101FF0000028F9D00948406820F0030007494860EC
:102000000846406840F00200486000BF034840684E
:1020100000F00C000828F9D10CBD000000100240AF
:1020200000200240042808D14FF0E021096941F066
:1020300004014FF0E022116107E04FF0E02109694F
:1020400021F004014FF0E0221161704710B50A48F9
:102050000078012804D0022808D0032809D102E022
:10206000FFF750FF05E001F0AFF802E000F022FFBB
:1020700000BF00BF10BD00004000002070B500BFD1
:102080001D4800681D49B0FBF1F01D4908701A4851
:1020900000684FF4FA51B0FBF1F000EB800044000F
:1020A00024F07F40401E4FF0E021486148170F2187
:1020B000002807DA0A07150E124A00F00F031B1F4B
:1020C000D55403E00A07130E0F4A135400BF002033
:1020D0004FF0E0218861401FFFF7A4FF4FF0E020A0
:1020E000006940F002004FF0E021086108460069F5
:1020F00040F00100086170BD0000002000127A006D
:102100003400002018ED00E000E400E010B51348B2
:10211000006840F001001149086008464068104915
:1021200008400E494860084600680E4908400B49BF
:1021300008600846006820F480200860084640686F
:1021400020F4FE0048604FF41F008860FFF7F6FEA1
:102150004FF000600449086010BD0000001002400C
:102160000000FFF8FFFFF6FE08ED00E0F0B50C46BA
:10217000154600220021068C4FF6FE773E4006846D
:10218000028B018C4FF60C7632407E1C06EA031659
:102190002E433243104EB0420ED0104EB0420BD000
:1021A000B0F1804F08D00E4EB04205D00D4EB04277
:1021B00002D00D4EB04206D14FF6FD76314044F0CC
:1021C0000106314305E04FF6F576314044F0010653
:1021D000314302830184F0BD002C014000340140F2
:1021E0000004004000080040000C0040F0B50C4620
:1021F0001546002200210026078C4FF6EF7C07EAE7
:102200000C070784028B018C4FF6FF7707EA041650
:1022100040F6FF473A404FF6FF7707EA03373A4365
:102220004FF6FF7707EA05273A43114FB8420ED021
:10223000104FB8420BD0B0F1804F08D00E4FB842CB
:1022400005D00E4FB84202D00D4FB84206D14FF61E
:10225000DF77394046F01007394305E04FF65F77E6
:10226000394044F01007394302830184F0BD000077
:10227000002C0140003401400004004000080040F0
:10228000000C0040F0B50C46154600220021002647
:10229000078C4FF6FF6C07EA0C070784828B018CD2
:1022A0004FF6FF7707EA04264FF60C773A404FF6D1
:1022B000FF7707EA03172F433A43114FB8420ED076
:1022C000104FB8420BD0B0F1804F08D00E4FB8423B
:1022D00005D00E4FB84202D00D4FB84206D14FF68E
:1022E000FF57394046F48077394305E04FF2FF57F6
:1022F000394044F48077394382830184F0BD000083
:10230000002C01400034014000040040000800405F
:10231000000C0040F0B50C461546002200210026B6
:10232000078C4EF6FF7C07EA0C070784828B018C32
:102330004FF6FF7707EA043640F6FF473A404FF67C
:10234000FF7707EA05273A434FF6FF7707EA033797
:102350003A43114FB8420ED0104FB8420BD0B0F1F3
:10236000804F08D00E4FB84205D00E4FB84202D071
:102370000D4FB84206D14DF6FF77394046F48057ED
:10238000394305E047F6FF57394044F48057394355
:1023900082830184F0BD0000002C01400034014024
:1023A0000004004000080040000C004010B51B482D
:1023B000007800F0800060BB0421080700F0D8F826
:1023C00038B31648007800F0400080B11348007818
:1023D00040F08000114908704FF08040008F104994
:1023E000088000214FF0804000F0DCF911E000206F
:1023F0000A4908700A4908804FF0804188840748DC
:10240000007840F04000054908700221480700F0BC
:10241000C9F90421080700F08DF810BD280000203C
:102420002A00002010B51B48007800F0800058BB3F
:102430000821194800F09CF830B31648007800F0E5
:10244000400078B11348007840F0800011490870CE
:1024500011483C3000881149088000210E4800F0E6
:10246000BBF911E000200B4908700C4908800A49AB
:10247000243108800748007840F040000549087082
:102480000221054800F0A8F90821034800F052F89D
:1024900010BD00002C000020000400402E00002091
:1024A00010B51B48007800F0800058BB082119487F
:1024B00000F05EF830B31648007800F0400078B1C4
:1024C0001348007840F080001149087011483C30F2
:1024D00000881149088000210E4800F07DF911E0C4
:1024E00000200B4908700C4908800A4924310880F3
:1024F0000748007840F0400005490870022105486F
:1025000000F06AF90821034800F014F810BD00003B
:1025100030000020000C00403200002021B1028871
:1025200042F08002028004E002884FF67F731A4076
:1025300002807047CA430282704721B1028842F08C
:102540000102028004E002884FF6FE731A40028006
:10255000704731B1B0F8442042F40042A0F8442062
:1025600005E0B0F84420C2F30E02A0F84420704702
:1025700030B50246002000230024158A05EA010335
:10258000958905EA010413B10CB1012000E0002097
:1025900030BD000070B505460C46244885420ED07B
:1025A000234885420BD0B5F1804F08D021488542A1
:1025B00005D02148854202D02048854200D100E064
:1025C00000BF208850B92389A28861882846FFF778
:1025D000CDFDE188284600F010F925E02088042888
:1025E0000AD12389A28861882846FFF7FFFDE18888
:1025F000284600F00BF917E0208808280AD1238923
:10260000A28861882846FFF73DFEE188284600F051
:102610000AF909E02389A28861882846FFF77AFE33
:10262000E188284600F008F970BD0000002C014048
:10263000003401400004004000080040000C00404D
:102640001AB183890B43838102E083898B438381A1
:102650007047000070B5002400220023058C4FF65F
:10266000FE7635400584028C8388048B4FF68F7587
:102670002C40B51E2C400D882C43751E2A400D8918
:102680002A434D882A43144DA8420BD0134DA8422B
:1026900008D0134DA84205D0124DA84202D0124DC9
:1026A000A84213D14FF6F7752A404D892A434FF6B9
:1026B000FB752A408D882A434FF6FF652B404FF665
:1026C000FF552B408D892B43CD892B438380048379
:1026D000CD888586028470BD002C01400034014005
:1026E0000040014000440140004801400A460021EA
:1026F000018B4FF6F77319401143018370470000B7
:1027000070B5002400220023058C4FF6EF7635408B
:102710000584028C8388048B48F6FF752C404FF6A5
:10272000FF452C400D884FF6FF7606EA05252C4321
:102730004FF6DF752A400D8906EA05152A434D88B4
:1027400006EA05152A43154DA84202D0144DA842A9
:102750001DD14FF67F752A404D894FF6FF7606EA68
:1027600005152A434FF6BF752A408D8806EA0515E0
:102770002A434FF6FF352B404FF2FF752B408D89D2
:1027800006EA85052B43CD8906EA85052B43838020
:102790000483CD880587028470BD0000002C0140B1
:1027A000003401400A460021018C4FF6DF731940C6
:1027B0004FF6FF7303EA02131943018470470A4678
:1027C0000021018B4FF2FF7319404FF6FF7303EAAC
:1027D00002231943018370470A460021018C4FF6FA
:1027E000FF5319404FF6FF7303EA02231943018494
:1027F00070478186704701877047028B4FF6F373ED
:102800001A400283028B0A4302837047028B4FF205
:10281000FF331A400283028B4FF6FF7303EA012352
:102820001A4302837047828B4FF6F3731A408283F8
:10283000828B0A4382837047828B4FF2FF331A40A8
:102840008283828B4FF6FF7303EA01231A4382834C
:1028500070470000002202881D4B98420ED01D4B8D
:1028600098420BD0B0F1804F08D01B4B984205D056
:102870001A4B984202D01A4B984204D14FF68F73EC
:102880001A404B881A43174B984207D0164B984270
:1028900004D04FF6FF431A40CB881A4302808B883E
:1028A00083850B8803850A4B98420BD0094B9842CD
:1028B00008D00E4B984205D00D4B984202D00D4BDC
:1028C000984201D10B7A038601238382704700006E
:1028D000002C01400034014000040040000800408A
:1028E000000C004000100040001400400040014077
:1028F000004401400048014010B540F224410B481B
:1029000000F02DF888B1094800880848001D0088AB
:1029100000210748FDF776FD4FF480710448FDF76C
:1029200041FE01210248FDF76DFD10BD0038014058
:102930005800024021B1828942F40052828104E0B1
:1029400082894DF6FF731A40828170471AB1838ADB
:102950000B43838202E0838A8B438382704770B586
:102960000246002400230025002040F66A16B142EA
:1029700000D100BFC1F3421501F01F03012606FA82
:1029800003F3012D02D19689334006E0022D02D1D6
:10299000168A334001E0968A33400C12012606FA6B
:1029A00004F41688344013B10CB1012000E000207B
:1029B00070BDF0B50346002400260025002040F637
:1029C0006A17B94200D100BF1846C1F3421401F0A2
:1029D0001F06012707FA06F5012C01D10C3004E08F
:1029E000022C01D1103000E014301AB107682F43D7
:1029F000076002E00768AF430760F0BD2DE9F047CC
:102A000086B005460E460024A24600BFA146002718
:102A1000B08900B100BF2F462C8A4CF6FF700440ED
:102A2000F08804432C82AC894EF6F3100440B08841
:102A300031890843718908430443AC81AC8A4FF65D
:102A4000FF400440B0890443AC8201A8FFF7EEF9CF
:102A50001F48874202D1DDF810A001E0DDF80CA08C
:102A6000A88900F4004040B10AEBCA0000EB0A104C
:102A700031684900B0FBF1F807E00AEBCA0000EB4F
:102A80000A1031688900B0FBF1F86420B8FBF0F05F
:102A900004012009642101FB1089A88900F4004089
:102AA00040B1322000EBC900B0FBF1F000F00700AC
:102AB000044308E0322000EB09106421B0FBF1F080
:102AC00000F00F0004432C8106B0BDE8F087000041
:102AD0000038014000BFFEE710B592B00446012166
:102AE0000420FFF783F901218803FFF77FF9012113
:102AF0000846FFF75BF918208DF847004FF4007087
:102B0000ADF8440001208DF8460011A93948FEF7C0
:102B100077FB04208DF847000002ADF84400012047
:102B20008DF8460011A93348FEF76AFB0D9400208A
:102B3000ADF840000C20ADF83E000020ADF83C00A0
:102B4000ADF83A00ADF838000DA92B48FFF756FF55
:102B500001212948FFF7EEFE012240F224412648D8
:102B6000FFF727FF25208DF8300001208DF8330076
:102B70008DF831008DF832000CA8FEF7DDFD1F48FE
:102B8000FDF74CFC1C48001D01901D4802900020E0
:102B900003904FF4807004900020059080200690F0
:102BA00000200790089009904FF480500A90002070
:102BB0000B9001A91148FDF7D7FC01210F48FDF743
:102BC00021FC0E481438FDF729FC0E480290102015
:102BD000039001A909481438FDF7C6FC01224021E1
:102BE0000548FFF7B3FE012280210348FFF7AEFE40
:102BF00012B010BD000801400038014058000240EA
:102C0000000100200002002000B58FB0012108461D
:102C1000FFF7DCF801210220FFF7D8F80121082096
:102C2000FFF7D4F801211C20FFF7E0F84FF4006013
:102C3000ADF8380010208DF83B0001208DF83A00E7
:102C40000EA97D48FEF7DCFA4FF400617A48FEF7E2
:102C5000B4FB0220ADF8380028208DF83B000EA907
:102C60007648FEF7CDFA4FF40050ADF8380010204A
:102C70008DF83B0001208DF83A000EA96E48FEF752
:102C8000BFFA4FF400516C48FEF797FB0420ADF8F3
:102C9000380028208DF83B000EA96848FEF7B0FAEE
:102CA0004FF48050ADF8380010208DF83B00012023
:102CB0008DF83A000EA96048FEF7A2FA4FF4805151
:102CC0005D48FEF77AFB0120ADF8380028208DF82A
:102CD0003B000EA95A48FEF793FA4CF24F30ADF87C
:102CE00030004720ADF82C000020ADF83200ADF8E0
:102CF0002E000BA94FF08040FFF7ACFD0420ADF88B
:102D00001C000020ADF81E000120ADF820000020BE
:102D1000ADF82200ADF8240007A94FF08040FFF77E
:102D200039FC1C208DF8280000208DF829008DF832
:102D30002A0001208DF82B000AA8FEF7FDFC0521D2
:102D40008807FFF7F7FB012204210807FFF778FC4B
:102D50004CF24F30ADF830004720ADF82C00002089
:102D6000ADF83200ADF82E000BA93648FFF772FD22
:102D70000820ADF810000020ADF812000120ADF8D9
:102D800014000020ADF81600ADF8180004A92D4875
:102D9000FFF700FC1D208DF8280000208DF8290089
:102DA0008DF82A0001208DF82B000AA8FEF7C4FC3C
:102DB00009212448FFF7BEFB012208212148FFF723
:102DC0003FFC4CF24F30ADF830004720ADF82C00FE
:102DD0000020ADF83200ADF82E000BA91A48FFF71D
:102DE00039FD0820ADF804000020ADF806000120F0
:102DF000ADF808000020ADF80A00ADF80C0001A9FC
:102E00001148FFF7C7FB32208DF8280000208DF80D
:102E100029008DF82A0001208DF82B000AA8FEF762
:102E20008BFC09210848FFF785FB01220821064891
:102E3000FFF706FC0FB000BD001001400008014084
:102E4000000C014000040040000C004000BF70472F
:102E500010B504464FF47A7104FB01F000F002F85B
:102E600010BD00002DE9F0470746FEF7A9FC104809
:102E7000007807FB00F800264FF0E020D0F814900F
:102E800085690FE04FF0E0208469AC4202D8281B2E
:102E9000064403E0A9EB04002844064425464645C1
:102EA00000D300E0EEE700BFFEF788FCBDE8F08746
:102EB0003400002010B51848007801280FD1FEF723
:102EC00075F900F0B1F94FF47A70FFF7C1FF00F027
:102ED000C0F9FEF74BF903201049087019E00E48BD
:102EE000007802280FD1FEF761F900F0D5F94FF410
:102EF0007A70FFF7ADFF00F0E1F9FEF737F9032034
:102F00000649087005E00448007810B9FEF72EF96C
:102F100010BD00BFFCE70000F800002040000020CA
:102F20002DE9F04104462C48007838B901202A499F
:102F30000870208800F0CAFD28490860274800680A
:102F400027490860274801682748006800F006FC08
:102F500026490860264801682448006800F0FEFB06
:102F6000054629462148006800F066FC21490860B2
:102F7000208800F0ABFD074619480168384600F08C
:102F8000F5FE06461B480168304600F0E7FD0546A1
:102F900013480168284600F0E1FB1749086015480E
:102FA00001684FF07E5000F0E1FE05460F480168D1
:102FB000284600F0D3FD11490860084600680A4918
:102FC00008600D480068054908600B48006800F07B
:102FD00045FD2080BDE8F081F4000020D4000020F1
:102FE000D0000020E8000020DC000020D8000020F5
:102FF000F0000020EC000020E4000020E0000020B1
:103000002DE9F04104462C48007838B901202A49BE
:103010000870208800F05AFD284908602748006899
:1030200027490860274801682748006800F096FB98
:1030300026490860264801682448006800F08EFB95
:10304000054629462148006800F0F6FB2149086042
:10305000208800F03BFD074619480168384600F01B
:1030600085FE06461B480168304600F077FD0546A0
:1030700013480168284600F071FB1749086015489D
:1030800001684FF07E5000F071FE05460F48016860
:10309000284600F063FD11490860084600680A49A7
:1030A00008600D480068054908600B48006800F09A
:1030B000D5FC2080BDE8F081CC000020AC000020D1
:1030C000A8000020C0000020B4000020B0000020B4
:1030D000C8000020C4000020BC000020B800002070
:1030E0002DE9F04104462C48007838B901202A49DE
:1030F0000870208800F0EAFC28490860274800682A
:1031000027490860274801682748006800F026FB27
:1031100026490860264801682448006800F01EFB24
:10312000054629462148006800F086FB21490860D1
:10313000208800F0CBFC074619480168384600F0AB
:1031400015FE06461B480168304600F007FD05469F
:1031500013480168284600F001FB1749086015482C
:1031600001684FF07E5000F001FE05460F480168EF
:10317000284600F0F3FC11490860084600680A4937
:1031800008600D480068054908600B48006800F0B9
:1031900065FC2080BDE8F081A400002084000020B0
:1031A00080000020980000208C0000208800002073
:1031B000A00000209C00002094000020900000202F
:1031C000FDF7F3F900BFFEE710B516480068401C94
:1031D00014490860FDF703FA1248007800F0010076
:1031E00008B9FDF7FDF90F4800680521B0FBF1F2C1
:1031F00001FB120008B9FDF705FA0A4800680A2128
:10320000B0FBF1F201FB120008B9FDF7E7F9054840
:1032100000686421B0FBF1F201FB120008B9FDF770
:10322000DCF910BD4400002010B50020FEF750FA74
:103230000020FEF765FA1420FEF762FA0020FEF780
:1032400047FA40F2CA30FFF703FE0020FEF758FAB3
:1032500010BD10B50020FEF73BFA6FF01300FEF72B
:103260004FFA4FF47F70FFF7F3FD0020FEF748FAA6
:1032700010BD10B56FF03100FEF72AFA3220FEF7CC
:103280003FFA40F2D110FFF7E3FD0020FEF720FAED
:103290000020FEF735FA10BD10B50020FEF730FA19
:1032A0000020FEF715FA1420FEF712FA4FF46670AC
:1032B000FFF7CEFD0020FEF70BFA10BD10B56FF042
:1032C0001300FEF705FA0020FEF71AFA40F2B630B6
:1032D000FFF7BEFD0020FEF7FBF910BD10B5322050
:1032E000FEF7F6F96FF03100FEF70AFA4FF4EB70D3
:1032F000FFF7AEFD0020FEF7EBF90020FEF700FA25
:1033000010BD000010B591EA030F48BF83F00043E1
:1033100000F14281841A71EB030C05D2121943EBC0
:103320000C03001B61EB0C01DFF824E14FEA1154A0
:10333000A4EB135C1EEA430F18BF9EEA445F73D0F0
:1033400023EA0E03DCF1200E21EA045143F480133A
:1033500032D322FA0CFE10EB0E0023FA0CFE41EBE6
:103360000E01CCF1200E03FA0EFE10EB0E0051F10F
:103370000001B1F5801FCCF1200E32D201EB0451D7
:1033800012FA0EF2BDE8104058BF7047401C38BF1B
:103390005FEA420218BF7047002814BF20F0010006
:1033A00041F100014FEA410313F5001F38BF704798
:1033B000A1F1C04100F0E2B8012A43EB0302ACF1F5
:1033C000200CDCF11F0E32BF4FF0000E23FA0CF37D
:1033D00010EB030041EB0451B4EB115FD0D0A1EB33
:1033E000045101F5801149085FEA300001EB0451F6
:1033F0000ED350F1000038BF12FA0EFE08D1BDE81E
:103400001040C9E7401C38BF5FEA4202CAD1C3E797
:10341000BDE810404FEA410313F5001F38BF704765
:10342000A1F1C04100F0AAB89EEA445F08D011EAB9
:103430005E0FBDE8104004BF01F00041002070475E
:10344000BDE8104070B500F04BF800BF64FBBE3E15
:103450000000E0FF4FEA41034FEA5353A3F58063B6
:10346000D3F11E03C8BFD3F1210C0CDD4FF0004295
:1034700042EAC12242EA505232FA03FC8CEAE17C71
:10348000ACEBE1707047102BC4BF0020704703F510
:10349000787CBCF1FF3F04D06FF0004282EA21004B
:1034A000704770B500F01CF84992248000207047E6
:1034B000F2E710F0004248BF4042B0FA80F310FA41
:1034C00003F10AD0C3F11D0303F580634FEA4150B5
:1034D00002EB035202EBD12170474FF0000070471E
:1034E0000EF1020E2EF0030E5EF8046B364205D488
:1034F000012A43EB030515F5001F12D8012841EB03
:10350000010C1CF5001F0CD80ED14FEAD17C15F52B
:10351000001F0CEB4C0C0CF1020C08BF4CEBD37CE5
:1035200004E04FF0080C01E04FEAD37C0CEB4C05B3
:1035300026FA05F606F00706B6F1040C06D20EEBE5
:10354000860CBDE870404CF0010C6047DFE80CF0E1
:10355000090B02024FF000414FF00000A1F50021DD
:1035600070BD19461046012851EB010418BFD4F56F
:10357000001484BF002001F0004170BD0808A0F5D0
:1035800000114FEA3101704710B591EA030F48BFAF
:1035900083F000433FF5BEAE841A71EB030C07D2F3
:1035A00012198CF0004C43EB0C03001B61EB0C0177
:1035B000DFF8A4E14FEA1154A4EB135C1EEA430FB9
:1035C00018BF9EEA445F00F0B08023EA6E035242C7
:1035D00021EA0451C3EB6E0338BF5B1EDCF1200E01
:1035E00025D322FA0CFE10EB0E0043FA0CFE41EB41
:1035F0000E01CCF1200E03FA0EFE10EB0E0051F17D
:103600000001CCF1200E29D412FA0EF201EB045184
:10361000BDE8104058BF7047401C1CBFB2F1004FBE
:10362000704700280CBF491C20F00100704712EBC6
:10363000020E43EB030218BF4FF0010E4EEA4202A6
:10364000ACF1200CDCF11E0E54D943FA0CFE10EB49
:103650000E0051F1FF31CCF11E0ED5D50EF1010E49
:1036600012FA0EFE404141EB010101EB445C5FEABE
:103670005C5C10D910EBDE7001EB045138BFBEF179
:10368000004FBDE8104018BF704700280CBF491C10
:1036900020F00100704730D24FEAD42C11F5001110
:1036A00024F400641BD0B1FA81F20B3AA41AA41ED0
:1036B000D2F12003914030FA03F31943904001EB1B
:1036C000CC71002C01EB0451BDE81040A8BF70473D
:1036D00001F1C0414FF0000001F000417047B0FA25
:1036E00080F310FA03F100D110BDE41A173C48052D
:1036F000C90AE4E701EB045110BD491001EB045184
:10370000BDE810404FEA300002E04FF00001704782
:103710004A0008BF0042F8D0B2F5001F28BF70472A
:1037200001F000414FF0000070479EEA445F07D06F
:1037300011EA5E0FBDE8104004BF00210020704771
:10374000BDE8104070B5FFF7CBFE00BF40DFF63E8E
:1037500083F00041104670470000E0FF90EA010F3F
:1037600048BF81F0004100F10883421A3CBF801A33
:1037700089184FEAD0524FF07F4C1CEA410FA2EB60
:10378000D15318BF9CEA026F00F03B804FF0004C11
:103790004CEA00204CEA012121FA03FC10EB0C0C4E
:1037A0001ED202F1FF325FEA1C2040EBC25038BF4C
:1037B00070471CF07F0F4FEA400C18BFBCF17F4FE1
:1037C00038BF7047C3F12003994008BF20F00100C3
:1037D000BCF17F4F38BF7047A0F1C04000F085BA00
:1037E0004FEA3C00000A40EBC25028BF1CF0FF0F1C
:1037F0004FEA400CE6D018BFBCF17F4F38BF70478E
:10380000EAE79CEA026F05D010EA5C0F08BF00F0FF
:103810000040704710B500F022FA00BF64FBBE3EC6
:10382000401058BFC0F14040491058BFC1F140415D
:103830008142EFF3008070474FF47F0C1CEAD012F6
:103840001EBF1CEAD11392EA0C0F93EA0C0F00F092
:10385000858090EA010F48BF42F4807240F4000C6A
:1038600041F400002CF07F4120F07F4000B5814200
:10387000A2EB03020FF2081CACEB504EC0F10000AB
:103880009EF800E04FEA4E0E00FB0EFC38BF4900E8
:103890004FEA2C1C02F5FA020CFB0EF34FEACE1E87
:1038A0004FEA112C4FEAC1210EEB635E42EB22423C
:1038B0000EFB0CFC4FEA1C5300FB03114FEA112CCA
:1038C0004FEA01310EFB0CFC4FEADC4C00FB0C1103
:1038D000C14228BF09184CEB03335DF804EB10EB31
:1038E000410143EBC250B2F57C0F38BF704729D578
:1038F00012F0F00F1CBF00F1C04000F00040704714
:10390000008182838485868788898B8C8D8E8F91B8
:103910009293959697999A9C9D9FA0A2A3A5A7A8DC
:10392000AAACAEB0B2B3B5B7B9BCBEC0C2C5C7C908
:10393000CCCED1D4D7D9DCDFE2E6E9ECF0F3F7FA6C
:10394000FE0000004FEA400C0CF1807CBCF17E4F81
:1039500028BF7047B0F1C04000F0C7B990EA010F2E
:103960000CEAD11348BF42F48072624538BF634508
:1039700007D213F47F0F16D080EA010000F0004058
:10398000704710B500F06BF9097EFC3E00F005B8F9
:1039900080EA010000F00040704780EA010000F07A
:1039A000004000F0A2B912F47F0F04BF0248704734
:1039B00080EA010000F099B90000C07F50EA010CD4
:1039C00000F113801CF5000F58BFBCF5000F01D4A7
:1039D0008842704707D710F5000F58BF11F5000F48
:1039E00015D488427047894270471CF5000F04D5F2
:1039F000BCF5000FF7D5814270474FF0807C1CEB7F
:103A0000400F38BF1CEB410F01D28142704710B507
:103A100000F025F9922449004FF000504FF08051FA
:103A2000FFF7FEBE41000B0ED3F19E0208D950F401
:103A300000034FEA032323FA02F048BF40427047D5
:103A400010B500F00CF900BF4992248000207047A7
:103A50006FF0004282EA200070470000C10DD1F1F2
:103A60009E0206DB4FEA002343F0004323FA02F0F4
:103A70007047004207D54FEA4001B1F1FE4F02D234
:103A80004FF00000704710B500F0E9F8499224802B
:103A9000002070476FEA20007047000010F00041DE
:103AA00048BF4042B0FA80F310FA03F2C3F19D031D
:103AB0000BD051EAC35101EB1220530638BF7047B7
:103AC00000F1010008BF20F001007047B0FA80F358
:103AD00010FA03F2C3F19D030AD0D90501EB1220BD
:103AE000530638BF704700F1010008BF20F0010005
:103AF0007047000050EA010C00F113801CF5000F24
:103B000058BFBCF5000F01D48842704707D710F5A5
:103B1000000F58BF11F5000F15D488427047894235
:103B200070471CF5000F04D5BCF5000FF7D5814296
:103B300070474FF0807C1CEB400F38BF1CEB410FEF
:103B400001D28142704710B500F089F892244900F3
:103B50004FF000504FF08051FFF762BE4FF47F0CE2
:103B60001CEAD0121EBF1CEAD11392EA0C0F93EA92
:103B70000C0F00F0478090EA010F48BF42F48072BA
:103B80004FF0004C4CEA00204CEA012102EB03020A
:103B9000A0FB0113A2F50002002918BF43F00103A6
:103BA0005B0028BF4FEA330342EB22425FEA132C4B
:103BB0004CEBC2502EBFBCEB436FB2F57C0F70478D
:103BC0004FEA036CBCF1004F08BF20F00100B2F5D2
:103BD0007C0F38BF70470BD582F0FF0212F5803F93
:103BE000C8BF704700F1C040D8BF00F00040704728
:103BF00000F5000C5FEA4C0C48BF7047B0F1C040C4
:103C000000F073B890EA010F0CEAD11348BF42F4F8
:103C10008072624538BF634504D280EA010000F03B
:103C20000040704710B500F01AF800BF8900013E4F
:103C300000F007B800F009B85FEA410C5FEA1C6CBD
:103C400008D080EA010000F050B85FEA400C5FEA5B
:103C50001C6CF6D14FF00040A0F5800070470EF1CB
:103C6000020E2EF0030E5EF8044B244204D44FEAF9
:103C70004102B2F17F4F11D84FEA4003B3F17F4FB9
:103C80000CD80ED14FEAD07CB2F17F4F0CEB4C0C2C
:103C90000CF1020C08BF4CEBD17C04E04FF0080C97
:103CA00001E04FEAD17C0CEB4C0324FA03F404F05E
:103CB0000704B4F1040C06D20EEB840CBDE81040EE
:103CC0004CF0010C6047DFE80CF0070802024FF0EF
:103CD0000040A0F5800010BD0846420018BFD2F198
:103CE000807288BF00F0004010BDFF2141EAD05033
:103CF000C005704751EA000C00F113801CF5000F5D
:103D000058BFBCF5000F01D48142704707D711F5A9
:103D1000000F58BF10F5000F15D48142704789423B
:103D200070471CF5000F04D5BCF5000FF7D588428D
:103D300070474FF0807C1CEB410F38BF1CEB400FED
:103D400001D28842704780EA010081EA000180EADE
:103D50000100FFF7F8BE80F0004090EA010F7FF508
:103D600004AD81F0004100F008B8000090EA010FB6
:103D700048BF81F000413FF5F8AC421A04D882F008
:103D80000042A0EB020011444FEAD0524FF07F4CAA
:103D90001CEA410FA2EBD15318BF9CEA026F4AD034
:103DA0004FF0004C4CEA00204CEA012121FA03FCC0
:103DB000B0EB0C0C0FD412F0FE0F36D05FEA4C00C3
:103DC0001DD5001240EBC25038BF70471CF03F0FAA
:103DD00018BF70470BE0A2F101025FEA1C2040EB24
:103DE000C25038BF70471CF07F0F18BF7047C3F137
:103DF0002003994014BF401E20F001007047800846
:103E00004FEA122308BF7047B0FA80FCA2EB0C0205
:103E1000CCF1280C60FA0CF093EA122F04BF00EBEF
:103E2000C25070474FEAC3707047130A5FEADC1054
:103E300008BF7047F6E79CEA026F04D010EA5C0FF7
:103E400008BF0020704710B5FFF709FF40DFF63EBE
:103E500081F0004070470000783E0008000000201C
:103E6000000100006C010008783F000800010020FC
:103E7000B80800008801000800A24A040000000001
:103E8000000000000102030406070809000000000A
:103E900001020304010203040607080902040608DC
:103EA0000000000000000000000000000000000012
:103EB0000000000000000000010000000000000001
:103EC00001000101090101000000000000000000E4
:103ED00000000000000000000000A0420000000000
:103EE00000006041DDECF1000F14231E0F0F280FBE
:103EF0000F1E000000000000000000000000000095
:103F000000000000000000000000000000000000B1
:103F10008FC2F53C00000000AE47E13D000000000C
:103F20000000000000000000000000000000000091
:103F300000000000000000008FC2F53C00000000FF
:103F4000AE47E13D0000000000000000000000005E
:103F50000000000000000000000000000000000061
:103F60008FC2F53C00000000AE47E13D00000000BC
:083F7000000000050300000041
:0400000508000131BD
:00000001FF
